:020000040800F2
:10000000F00802200D020008310200083302000847
:10001000350200083702000839020008000000001D
:100020000000000000000000000000003B0200088B
:100030003D020008000000003F02000841020008E5
:10004000430200084302000843020008430200087C
:10005000430200084302000843020008430200086C
:10006000430200084302000843020008430200085C
:10007000430200084302000843020008430200084C
:10008000430200084302000843020008430200083C
:10009000430200084302000843020008430200082C
:1000A000430200084302000843020008430200081C
:1000B000430200084302000843020008430200080C
:1000C00043020008430200084302000843020008FC
:1000D00043020008FD09000843020008430200082B
:1000E00043020008430200084302000843020008DC
:1000F000B509000843020008430200084302000853
:1001000043020008430200084302000843020008BB
:1001100043020008430200084302000843020008AB
:10012000430200084302000843020008430200089B
:10013000430200084302000843020008430200088B
:10014000430200084302000843020008430200087B
:10015000430200084302000843020008430200086B
:10016000430200084302000843020008430200085B
:100170004302000843020008430200080000000098
:10018000430200084302000843020008430200083B
:10019000430200084302000843020008430200082B
:1001A000430200084302000843020008430200081B
:1001B000430200084302000843020008430200080B
:1001C0004302000843020008000000004302000848
:1001D00043020008430200084302000843020008EB
:1001E00043020008430200084302000843020008DB
:1001F0004302000843020008DFF80CD000F03AF890
:1002000000480047510B0008F0080220DFF83400D6
:10021000016841F470010160BFF34F8FDFF82800DF
:10022000016821F040410160BFF36F8F074800472C
:10023000FEE7FEE7FEE7FEE7FEE7FEE7FEE7FEE796
:10024000FEE7FEE788ED00E034EF00E0F90100088A
:1002500030B505462A460B4612F8010B13F8014B40
:1002600008B1A042F8D01CB1002802D06D1CF1E703
:10027000284630BD064C074D06E0E06840F001031B
:1002800094E8070098471034AC42F6D3FFF7B8FF64
:10029000100F0008300F000810B500BF00BF00BFEE
:1002A00000BF00BFBFF34F8F00BF00BF00BF00BF44
:1002B00000BF00BFBFF36F8F00BF00BF00BF0020B3
:1002C000114908601148006840F400300F49086087
:1002D00000BF00BF00BFBFF34F8F00BF00BF00BF14
:1002E00000BF00BF00BFBFF36F8F00BF00BF00BFE4
:1002F00000BF00F0B5F904484C30006840F004003D
:1003000001494C31086010BD50EF00E014ED00E0F1
:100310001CB51C48006840F020001A490860012004
:10032000032100230246CDE900104FF42071164846
:1003300000F068F81348006840F4807011490860C4
:10034000012000210B460A46CDE900104FF4F87158
:100350000E4800F057F80B48006840F0800009494B
:100360000860012000210B460A46CDE900104FF439
:100370007851074800F046F801228021024800F039
:1003800029F81CBD30380240001402400020024011
:10039000001C024030B5CC1000F1200353F824308B
:1003A0004C07E50E0F24AC40A343CD1000F1200410
:1003B00044F82530CC1000F1200353F824304C07CA
:1003C000E40E02FA04F42343CD1000F1200444F8B3
:1003D000253030BD02F001030BB1816101E00B0457
:1003E000836170470548006900F4F87304480068A9
:1003F00000F4785143EA01021009704700200240DE
:10040000101C02402DE9F0470C46DDE90867002189
:1004100000258C4600BF60E04FF0010808FA01F5A6
:1004200004EA050CAC4557D1D0F800804FEA410AE8
:100430004FF0030909FA0AF928EA0908C0F8008010
:10044000D0F800804FEA410902FA09F948EA0908A0
:10045000C0F80080012A01D0022A27D1D0F80880F4
:100460004FEA410A4FF0030909FA0AF928EA090894
:10047000C0F80880D0F808804FEA410906FA09F967
:1004800048EA0908C0F80880D0F804904FF0010845
:1004900008FA01F829EA0809C0F80490D0F80480A5
:1004A00003FA01F948EA0908C0F80480D0F80C8082
:1004B0004FEA410A4FF0030909FA0AF928EA090844
:1004C000C0F80C80D0F80C804FEA410907FA09F90E
:1004D00048EA0908C0F80C80491C10299CD3BDE8E3
:1004E000F08700001CB51748006840F0010015496E
:1004F00008600846006840F004000860084600688C
:1005000040F080000860022000210B460A46CDE939
:10051000001001210C48FFF775FF012000210B4658
:100520000A46CDE9001041030848FFF76BFF0120A0
:1005300000210B460A46CDE900100C210448FFF7C4
:1005400061FF1CBD3038024000000240000802403C
:10055000001C02401CB50D48006840F002000B4929
:1005600008600120032100230246CDE9001008485D
:10057000FFF748FF012202210548FFF72BFF012268
:1005800011460348FFF726FF1CBD0000303802402B
:10059000000402402DE9F0410746884614461D46F6
:1005A000284600F033F8C5F1040007FA00F60F20E2
:1005B000284100EA0800064306F00F06E21704EBA4
:1005C000D2625211920002F1E022D2F800212146BB
:1005D000E31704EBD3635B11A4EB431C012303FA81
:1005E0000CF31A432046E31704EBD3635B119B0023
:1005F00003F1E023C3F800210348005D40EA061040
:1006000001490855BDE8F08100E400E001460723F8
:1006100023EA01021202054B18684FF6FF03184047
:10062000034B18431043014B186070470CED00E07A
:100630000000FA054A0A52020243014B1A60704751
:1006400008ED00E010B5044621460448FFF700FE1F
:1006500008B1012010BD0020FCE7000024000220AA
:1006600010B50023234C236000BF00BF00BFBFF3C1
:100670004F8F00BF00BF00BF231F1868C0F34E316B
:1006800000BFC0F3C90200BF43F6E07303EA4113A1
:100690004FF0404404EA82742343174C236000BFA8
:1006A00000BF131EA2F10102EED10B1EA1F1010148
:1006B000E7D100BF00BF00BFBFF34F8F00BF00BF37
:1006C00000BF0C4B703B1B6843F48033094C703CFB
:1006D000236000BF00BF00BFBFF34F8F00BF00BF4C
:1006E00000BF00BF00BF00BFBFF36F8F00BF00BFE0
:1006F00000BF10BD84ED00E060EF00E02DE9F041A7
:1007000004460D4616461F461548006840F0010095
:100710001349086000201249083108601048006839
:10072000104908400E4908600F48091D0860081F5D
:10073000006820F48020091F0860002008490C315F
:100740000860FFF7A9FD3B4632462946204600F0E7
:100750000DF800214FF00060FFF76CFFBDE8F0815D
:1007600000380240FFFFF6FE10300024F0B50446CA
:100770000D46002100203F4E366846F480363D4F3E
:100780003E6001E04E1CB1B23A4E366806F40036C7
:100790001EB941F6FF76B142F4DB41F6FF76B14275
:1007A00001D1012065E0334E4036366846F0805670
:1007B000304F40373E60304E366846F440462E4F4C
:1007C0003E603E46366846F480363E603E463668B9
:1007D00046F400363E60274E0836366846F4144626
:1007E000244F08373E60234E366826F08076214F2E
:1007F0003E6045EA84160127C7EB520746EA0746E2
:1008000046EA036646F480061A4F3F1D3E603E1FCF
:10081000366846F080763F1F3E6000BF154E366852
:1008200006F00076002EF9D0144E366846F4807635
:10083000124F3E603E46366846F400763E603E46C5
:10084000366846F007063E600A4E0836366826F0DF
:100850000306084F08373E603E46366846F00206FB
:100860003E6000BF034E0836366806F00C06082EC0
:10087000F8D1F0BD0038024000700040003C02405A
:100880007CB505460C463948006840F002003749FF
:10089000086036481438006840F0040033491439C1
:1008A00008600220032100230246CDE900108021C8
:1008B0002F48FFF7A7FD032207212D48FFF76AFD08
:1008C0002C480560001F0460001D0068400829498D
:1008D0000C31086027482C38006840F00400254996
:1008E0002C3908600846006840F00800086021487C
:1008F0001438006840F4E0401E4914390860084686
:10090000006840F4006008601A480C38006840F045
:10091000100018490C39086016481830006840F477
:10092000004014491831086012482C38006840F023
:10093000800010492C3908600E482038006840F0CB
:1009400001000C492039086002232C2201210846AD
:10095000FFF720FE002007491C390860081D0068C9
:1009600040F00100091D08607CBD000044380240D1
:10097000000802402C0401400C49B1FBF0F1491E73
:100980000B4A1160114609684908094A0C32116086
:100990000021074A083A116005492C39096841F0DD
:1009A0000101034A2C3A11607047000040420F00D9
:1009B0002C0401401048006800F00100D8B10E4836
:1009C000006820F001000C490860081D006840F034
:1009D0000100091D086008483430006840F40040F8
:1009E00005493431086004481038006840F00100BF
:1009F0000149103908607047100401400B48C06974
:100A000000F0200088B10948406AC1B20848027865
:100A10000078401C064B1870064881541846007830
:100A2000C82802DB002019460870704700100140FA
:100A30002000022024000220014A024900F013B8DD
:100A4000350B00081C00022002E008C8121F08C174
:100A5000002AFAD170477047002001E001C1121F3F
:100A6000002AFBD170472DE9F04116460F46044697
:100A7000002503E03946B047641C6D1C207800282F
:100A8000F8D12846BDE8F0814FF0E021096921F056
:100A900004014FF0E0221161C21700EB5272C2F361
:100AA000C702054B1A704FF47A714143C1F3CF016D
:100AB000024A118070470000160002201800022030
:100AC00070B504464FF4077094FBF0F0C6B24FF4D3
:100AD000077094FBF0F100FB114085B205E04FF484
:100AE000077000F009F8701EC6B2002EF7D115B1DC
:100AF000284600F001F870BD01460D4A12884A43AD
:100B00004FF0E0235A6100229A6101221A6100BF6E
:100B10004FF0E022106900F001021AB100F48032B7
:100B2000002AF5D000224FF0E0231A619A61704745
:100B30001800022000BF054AD26902F04002002AD4
:100B4000F9D0C2B2014B9A62704700000010014018
:100B50004FF0010940F2FF370923022219214FF417
:100B6000D870FFF7CBFDD820FFF78EFF4FF4E131AF
:100B70006C2000F06FF9FFF7EDFCFFF7B3FCFFF717
:100B8000C7FBD72140F2E730FFF77AFE74A0FFF7EA
:100B900053FFE3E07648FFF755FD68B1012280215D
:100BA0007448FFF717FC4FF4FA70FFF7E5FE00F00A
:100BB0003FF971A0FFF740FF7148FFF743FD68B1AF
:100BC000002280216B48FFF705FC4FF4FA70FFF715
:100BD000D3FE00F02DF968A0FFF72EFF6948FFF75C
:100BE00031FD90B16848006820F400406649086013
:100BF00065484438006820F00100634944390860C2
:100C000000F016F95CA0FFF717FFFFF7EBFB0546B6
:100C1000BD426FD085EA07082F4600248BE00120F3
:100C2000A04000EA0800002871D00A2C11D2DFE8A9
:100C300004F005111D2935414D5966730120A0406E
:100C4000284018B151A0FFF7F7FE02E051A0FFF7CE
:100C5000F3FE6DE00120A040284018B14FA0FFF73F
:100C6000EBFE02E04FA0FFF7E7FE61E00120A040AD
:100C7000284018B14DA0FFF7DFFE02E04DA0FFF7BE
:100C8000DBFE55E00120A040284018B14BA0FFF743
:100C9000D3FE02E04BA0FFF7CFFE49E00120A040C9
:100CA000284018B149A0FFF7C7FE02E049A0FFF7AE
:100CB000C3FE3DE00120A040284018B147A0FFF747
:100CC000BBFE02E047A0FFF7B7FE31E00120A040E5
:100CD000284018B145A0FFF7AFFE02E045A0FFF79E
:100CE000ABFE25E00120A040284020B143A0FFF743
:100CF000A3FE03E022E043A0FFF79EFE18E00120E0
:100D0000A040284020B141A0FFF796FE03E010E08C
:100D100040A0FFF791FE0BE00120A040284018B151
:100D20003EA0FFF789FE02E03EA0FFF785FE00BF70
:100D300000BF601CC4B20A2CFFF671AF0A20FFF797
:100D4000BFFE701CC6B2322E08D1002689F0010009
:100D50008146024601213548FFF73CFB1AE70000B7
:100D6000BAECCDE2B4ABB8D0C6F70D0A0000000073
:100D700000000220001402404F4B0D0A000000004A
:100D80000800022011000220440401404F41310DAF
:100D90000A0000004341310D0A0000004F42320DAD
:100DA0000A0000004342320D0A0000004F43330D99
:100DB0000A0000004343330D0A0000004F44340D85
:100DC0000A0000004344340D0A0000004F45350D71
:100DD0000A0000004345350D0A0000004F46360D5D
:100DE0000A0000004346360D0A0000004F47370D49
:100DF0000A0000004347370D0A0000004F48380D35
:100E00000A0000004348380D0A0000004F49390D20
:100E10000A0000004349390D0A0000004F4A3130F2
:100E20000D0A0000434A31300D0A00000004024060
:100E3000002004E00021054A1154411CC8B2C82812
:100E4000F8DB0021024A11707047000024000220E4
:100E5000200002207CB505460C462948684300EB7B
:100E60005400B0FBF4F62748006840F00100254923
:100E7000086024481430006840F010002149143103
:100E800008600120022100230A46CDE900104FF43A
:100E9000C0611D48FFF7B6FA072209211A48FFF77B
:100EA00079FA07220A211848FFF774FA1748C66032
:100EB0000020164908600846006808600846006877
:100EC00008600846006808600846006840F00800AE
:100ED00008600846006840F00400086008460068A2
:100EE00040F0200008600223252203210846FFF776
:100EF00051FB0648006840F00100044908607CBDD1
:100F000040420F0030380240000002400010014013
:100F1000300F00080000022024000000480A0008EA
:100F2000540F000824000220CC080000580A0008D2
:100F3000464F5257415244004241434B574152445D
:100F40000053544F5000000000000000000000005B
:040F5000000000009D
:04000005080001F9F5
:00000001FF
